{
  "contractName": "MedicalRecord",
  "abi": [
    {
      "anonymous": false,
      "inputs": [
        {
          "indexed": false,
          "internalType": "string",
          "name": "name",
          "type": "string"
        },
        {
          "indexed": false,
          "internalType": "string",
          "name": "RRN",
          "type": "string"
        },
        {
          "indexed": false,
          "internalType": "string",
          "name": "KCD",
          "type": "string"
        },
        {
          "indexed": false,
          "internalType": "string",
          "name": "date",
          "type": "string"
        },
        {
          "indexed": false,
          "internalType": "string",
          "name": "receiptNumber",
          "type": "string"
        },
        {
          "indexed": false,
          "internalType": "uint256",
          "name": "totalOop",
          "type": "uint256"
        },
        {
          "indexed": false,
          "internalType": "uint256",
          "name": "totPcc",
          "type": "uint256"
        },
        {
          "indexed": false,
          "internalType": "uint256",
          "name": "totFoop",
          "type": "uint256"
        },
        {
          "indexed": false,
          "internalType": "uint256",
          "name": "nonReimbursement",
          "type": "uint256"
        }
      ],
      "name": "MedicalRecordSet",
      "type": "event"
    },
    {
      "inputs": [
        {
          "internalType": "string",
          "name": "_name",
          "type": "string"
        },
        {
          "internalType": "string",
          "name": "_RRN",
          "type": "string"
        },
        {
          "internalType": "string",
          "name": "_KCD",
          "type": "string"
        },
        {
          "internalType": "string",
          "name": "_date",
          "type": "string"
        },
        {
          "internalType": "string",
          "name": "_receiptNumber",
          "type": "string"
        },
        {
          "internalType": "uint256",
          "name": "_totalOop",
          "type": "uint256"
        },
        {
          "internalType": "uint256",
          "name": "_totPcc",
          "type": "uint256"
        },
        {
          "internalType": "uint256",
          "name": "_totFoop",
          "type": "uint256"
        },
        {
          "internalType": "uint256",
          "name": "_nonReimbursement",
          "type": "uint256"
        },
        {
          "components": [
            {
              "internalType": "string",
              "name": "category",
              "type": "string"
            },
            {
              "internalType": "string",
              "name": "date",
              "type": "string"
            },
            {
              "internalType": "string",
              "name": "treatCode",
              "type": "string"
            },
            {
              "internalType": "string",
              "name": "description",
              "type": "string"
            },
            {
              "internalType": "uint256",
              "name": "price",
              "type": "uint256"
            },
            {
              "internalType": "uint256",
              "name": "oop",
              "type": "uint256"
            },
            {
              "internalType": "uint256",
              "name": "pcc",
              "type": "uint256"
            },
            {
              "internalType": "uint256",
              "name": "foop",
              "type": "uint256"
            },
            {
              "internalType": "uint256",
              "name": "nonReimbursement",
              "type": "uint256"
            }
          ],
          "internalType": "struct MedicalRecord.TreatmentDetail[]",
          "name": "_treatDetails",
          "type": "tuple[]"
        }
      ],
      "name": "addMedicalRecord",
      "outputs": [],
      "stateMutability": "nonpayable",
      "type": "function"
    },
    {
      "inputs": [
        {
          "internalType": "string",
          "name": "_receiptNumber",
          "type": "string"
        }
      ],
      "name": "getMedicalRecord",
      "outputs": [
        {
          "internalType": "string",
          "name": "",
          "type": "string"
        },
        {
          "internalType": "string",
          "name": "",
          "type": "string"
        },
        {
          "internalType": "string",
          "name": "",
          "type": "string"
        },
        {
          "internalType": "string",
          "name": "",
          "type": "string"
        },
        {
          "internalType": "string",
          "name": "",
          "type": "string"
        },
        {
          "internalType": "uint256",
          "name": "",
          "type": "uint256"
        },
        {
          "internalType": "uint256",
          "name": "",
          "type": "uint256"
        },
        {
          "internalType": "uint256",
          "name": "",
          "type": "uint256"
        },
        {
          "internalType": "uint256",
          "name": "",
          "type": "uint256"
        },
        {
          "components": [
            {
              "internalType": "string",
              "name": "category",
              "type": "string"
            },
            {
              "internalType": "string",
              "name": "date",
              "type": "string"
            },
            {
              "internalType": "string",
              "name": "treatCode",
              "type": "string"
            },
            {
              "internalType": "string",
              "name": "description",
              "type": "string"
            },
            {
              "internalType": "uint256",
              "name": "price",
              "type": "uint256"
            },
            {
              "internalType": "uint256",
              "name": "oop",
              "type": "uint256"
            },
            {
              "internalType": "uint256",
              "name": "pcc",
              "type": "uint256"
            },
            {
              "internalType": "uint256",
              "name": "foop",
              "type": "uint256"
            },
            {
              "internalType": "uint256",
              "name": "nonReimbursement",
              "type": "uint256"
            }
          ],
          "internalType": "struct MedicalRecord.TreatmentDetail[]",
          "name": "",
          "type": "tuple[]"
        }
      ],
      "stateMutability": "view",
      "type": "function",
      "constant": true
    }
  ],
  "bytecode": "0x608060405234801561001057600080fd5b506118a3806100206000396000f3fe608060405234801561001057600080fd5b50600436106100365760003560e01c80630730760f1461003b578063cc368d5314610057575b600080fd5b61005560048036038101906100509190610dec565b610090565b005b610071600480360381019061006c9190610f73565b61035f565b6040516100879a99989796959493929190611248565b60405180910390f35b6040518060400160405280600381526020017f4a3039000000000000000000000000000000000000000000000000000000000081525080519060200120888051906020012014610115576040517f08c379a000000000000000000000000000000000000000000000000000000000815260040161010c9061135a565b60405180910390fd5b6000808760405161012691906113b6565b90815260200160405180910390206000018054610142906113fc565b905014610184576040517f08c379a000000000000000000000000000000000000000000000000000000000815260040161017b90611479565b60405180910390fd5b6000808760405161019591906113b6565b908152602001604051809103902090508a8160000190816101b69190611645565b50898160010190816101c89190611645565b50888160020190816101da9190611645565b50878160030190816101ec9190611645565b50868160040190816101fe9190611645565b5085816005018190555084816006018190555083816007018190555082816008018190555060005b82518110156103005782818151811061024257610241611717565b5b602002602001015182600901600083815260200190815260200160002060008201518160000190816102749190611645565b50602082015181600101908161028a9190611645565b5060408201518160020190816102a09190611645565b5060608201518160030190816102b69190611645565b506080820151816004015560a0820151816005015560c0820151816006015560e08201518160070155610100820151816008015590505080806102f890611775565b915050610226565b50815181600a01819055507f48d2eeae27e9e508f7e8551b4f6c21dc4bf2b48e6a049f993c5e20051e9f13e28b8b8b8b8b8b8b8b8b60405161034a999897969594939291906117bd565b60405180910390a15050505050505050505050565b606080606080606060008060008060606000808c60405161038091906113b6565b90815260200160405180910390209050600081600a015467ffffffffffffffff8111156103b0576103af610a4b565b5b6040519080825280602002602001820160405280156103e957816020015b6103d66109d0565b8152602001906001900390816103ce5790505b50905060005b82600a01548110156106c7578260090160008281526020019081526020016000206040518061012001604052908160008201805461042c906113fc565b80601f0160208091040260200160405190810160405280929190818152602001828054610458906113fc565b80156104a55780601f1061047a576101008083540402835291602001916104a5565b820191906000526020600020905b81548152906001019060200180831161048857829003601f168201915b505050505081526020016001820180546104be906113fc565b80601f01602080910402602001604051908101604052809291908181526020018280546104ea906113fc565b80156105375780601f1061050c57610100808354040283529160200191610537565b820191906000526020600020905b81548152906001019060200180831161051a57829003601f168201915b50505050508152602001600282018054610550906113fc565b80601f016020809104026020016040519081016040528092919081815260200182805461057c906113fc565b80156105c95780601f1061059e576101008083540402835291602001916105c9565b820191906000526020600020905b8154815290600101906020018083116105ac57829003601f168201915b505050505081526020016003820180546105e2906113fc565b80601f016020809104026020016040519081016040528092919081815260200182805461060e906113fc565b801561065b5780601f106106305761010080835404028352916020019161065b565b820191906000526020600020905b81548152906001019060200180831161063e57829003601f168201915b50505050508152602001600482015481526020016005820154815260200160068201548152602001600782015481526020016008820154815250508282815181106106a9576106a8611717565b5b602002602001018190525080806106bf90611775565b9150506103ef565b5081600001826001018360020184600301856004018660050154876006015488600701548960080154898980546106fd906113fc565b80601f0160208091040260200160405190810160405280929190818152602001828054610729906113fc565b80156107765780601f1061074b57610100808354040283529160200191610776565b820191906000526020600020905b81548152906001019060200180831161075957829003601f168201915b50505050509950888054610789906113fc565b80601f01602080910402602001604051908101604052809291908181526020018280546107b5906113fc565b80156108025780601f106107d757610100808354040283529160200191610802565b820191906000526020600020905b8154815290600101906020018083116107e557829003601f168201915b50505050509850878054610815906113fc565b80601f0160208091040260200160405190810160405280929190818152602001828054610841906113fc565b801561088e5780601f106108635761010080835404028352916020019161088e565b820191906000526020600020905b81548152906001019060200180831161087157829003601f168201915b505050505097508680546108a1906113fc565b80601f01602080910402602001604051908101604052809291908181526020018280546108cd906113fc565b801561091a5780601f106108ef5761010080835404028352916020019161091a565b820191906000526020600020905b8154815290600101906020018083116108fd57829003601f168201915b5050505050965085805461092d906113fc565b80601f0160208091040260200160405190810160405280929190818152602001828054610959906113fc565b80156109a65780601f1061097b576101008083540402835291602001916109a6565b820191906000526020600020905b81548152906001019060200180831161098957829003601f168201915b505050505095509b509b509b509b509b509b509b509b509b509b5050509193959799509193959799565b6040518061012001604052806060815260200160608152602001606081526020016060815260200160008152602001600081526020016000815260200160008152602001600081525090565b6000604051905090565b600080fd5b600080fd5b600080fd5b600080fd5b6000601f19601f8301169050919050565b7f4e487b7100000000000000000000000000000000000000000000000000000000600052604160045260246000fd5b610a8382610a3a565b810181811067ffffffffffffffff82111715610aa257610aa1610a4b565b5b80604052505050565b6000610ab5610a1c565b9050610ac18282610a7a565b919050565b600067ffffffffffffffff821115610ae157610ae0610a4b565b5b610aea82610a3a565b9050602081019050919050565b82818337600083830152505050565b6000610b19610b1484610ac6565b610aab565b905082815260208101848484011115610b3557610b34610a35565b5b610b40848285610af7565b509392505050565b600082601f830112610b5d57610b5c610a30565b5b8135610b6d848260208601610b06565b91505092915050565b6000819050919050565b610b8981610b76565b8114610b9457600080fd5b50565b600081359050610ba681610b80565b92915050565b600067ffffffffffffffff821115610bc757610bc6610a4b565b5b602082029050602081019050919050565b600080fd5b600080fd5b600080fd5b60006101208284031215610bfe57610bfd610bdd565b5b610c09610120610aab565b9050600082013567ffffffffffffffff811115610c2957610c28610be2565b5b610c3584828501610b48565b600083015250602082013567ffffffffffffffff811115610c5957610c58610be2565b5b610c6584828501610b48565b602083015250604082013567ffffffffffffffff811115610c8957610c88610be2565b5b610c9584828501610b48565b604083015250606082013567ffffffffffffffff811115610cb957610cb8610be2565b5b610cc584828501610b48565b6060830152506080610cd984828501610b97565b60808301525060a0610ced84828501610b97565b60a08301525060c0610d0184828501610b97565b60c08301525060e0610d1584828501610b97565b60e083015250610100610d2a84828501610b97565b6101008301525092915050565b6000610d4a610d4584610bac565b610aab565b90508083825260208201905060208402830185811115610d6d57610d6c610bd8565b5b835b81811015610db457803567ffffffffffffffff811115610d9257610d91610a30565b5b808601610d9f8982610be7565b85526020850194505050602081019050610d6f565b5050509392505050565b600082601f830112610dd357610dd2610a30565b5b8135610de3848260208601610d37565b91505092915050565b6000806000806000806000806000806101408b8d031215610e1057610e0f610a26565b5b60008b013567ffffffffffffffff811115610e2e57610e2d610a2b565b5b610e3a8d828e01610b48565b9a505060208b013567ffffffffffffffff811115610e5b57610e5a610a2b565b5b610e678d828e01610b48565b99505060408b013567ffffffffffffffff811115610e8857610e87610a2b565b5b610e948d828e01610b48565b98505060608b013567ffffffffffffffff811115610eb557610eb4610a2b565b5b610ec18d828e01610b48565b97505060808b013567ffffffffffffffff811115610ee257610ee1610a2b565b5b610eee8d828e01610b48565b96505060a0610eff8d828e01610b97565b95505060c0610f108d828e01610b97565b94505060e0610f218d828e01610b97565b935050610100610f338d828e01610b97565b9250506101208b013567ffffffffffffffff811115610f5557610f54610a2b565b5b610f618d828e01610dbe565b9150509295989b9194979a5092959850565b600060208284031215610f8957610f88610a26565b5b600082013567ffffffffffffffff811115610fa757610fa6610a2b565b5b610fb384828501610b48565b91505092915050565b600081519050919050565b600082825260208201905092915050565b60005b83811015610ff6578082015181840152602081019050610fdb565b83811115611005576000848401525b50505050565b600061101682610fbc565b6110208185610fc7565b9350611030818560208601610fd8565b61103981610a3a565b840191505092915050565b61104d81610b76565b82525050565b600081519050919050565b600082825260208201905092915050565b6000819050602082019050919050565b600082825260208201905092915050565b600061109b82610fbc565b6110a5818561107f565b93506110b5818560208601610fd8565b6110be81610a3a565b840191505092915050565b6110d281610b76565b82525050565b60006101208301600083015184820360008601526110f68282611090565b915050602083015184820360208601526111108282611090565b9150506040830151848203604086015261112a8282611090565b915050606083015184820360608601526111448282611090565b915050608083015161115960808601826110c9565b5060a083015161116c60a08601826110c9565b5060c083015161117f60c08601826110c9565b5060e083015161119260e08601826110c9565b506101008301516111a76101008601826110c9565b508091505092915050565b60006111be83836110d8565b905092915050565b6000602082019050919050565b60006111de82611053565b6111e8818561105e565b9350836020820285016111fa8561106f565b8060005b85811015611236578484038952815161121785826111b2565b9450611222836111c6565b925060208a019950506001810190506111fe565b50829750879550505050505092915050565b6000610140820190508181036000830152611263818d61100b565b90508181036020830152611277818c61100b565b9050818103604083015261128b818b61100b565b9050818103606083015261129f818a61100b565b905081810360808301526112b3818961100b565b90506112c260a0830188611044565b6112cf60c0830187611044565b6112dc60e0830186611044565b6112ea610100830185611044565b8181036101208301526112fd81846111d3565b90509b9a5050505050505050505050565b7f4b434420646f6573206e6f74206d617463680000000000000000000000000000600082015250565b6000611344601283610fc7565b915061134f8261130e565b602082019050919050565b6000602082019050818103600083015261137381611337565b9050919050565b600081905092915050565b600061139082610fbc565b61139a818561137a565b93506113aa818560208601610fd8565b80840191505092915050565b60006113c28284611385565b915081905092915050565b7f4e487b7100000000000000000000000000000000000000000000000000000000600052602260045260246000fd5b6000600282049050600182168061141457607f821691505b602082108103611427576114266113cd565b5b50919050565b7f52656365697074206e756d62657220616c726561647920657869737473000000600082015250565b6000611463601d83610fc7565b915061146e8261142d565b602082019050919050565b6000602082019050818103600083015261149281611456565b9050919050565b60008190508160005260206000209050919050565b60006020601f8301049050919050565b600082821b905092915050565b6000600883026114fb7fffffffffffffffffffffffffffffffffffffffffffffffffffffffffffffffff826114be565b61150586836114be565b95508019841693508086168417925050509392505050565b6000819050919050565b600061154261153d61153884610b76565b61151d565b610b76565b9050919050565b6000819050919050565b61155c83611527565b61157061156882611549565b8484546114cb565b825550505050565b600090565b611585611578565b611590818484611553565b505050565b5b818110156115b4576115a960008261157d565b600181019050611596565b5050565b601f8211156115f9576115ca81611499565b6115d3846114ae565b810160208510156115e2578190505b6115f66115ee856114ae565b830182611595565b50505b505050565b600082821c905092915050565b600061161c600019846008026115fe565b1980831691505092915050565b6000611635838361160b565b9150826002028217905092915050565b61164e82610fbc565b67ffffffffffffffff81111561166757611666610a4b565b5b61167182546113fc565b61167c8282856115b8565b600060209050601f8311600181146116af576000841561169d578287015190505b6116a78582611629565b86555061170f565b601f1984166116bd86611499565b60005b828110156116e5578489015182556001820191506020850194506020810190506116c0565b8683101561170257848901516116fe601f89168261160b565b8355505b6001600288020188555050505b505050505050565b7f4e487b7100000000000000000000000000000000000000000000000000000000600052603260045260246000fd5b7f4e487b7100000000000000000000000000000000000000000000000000000000600052601160045260246000fd5b600061178082610b76565b91507fffffffffffffffffffffffffffffffffffffffffffffffffffffffffffffffff82036117b2576117b1611746565b5b600182019050919050565b60006101208201905081810360008301526117d8818c61100b565b905081810360208301526117ec818b61100b565b90508181036040830152611800818a61100b565b90508181036060830152611814818961100b565b90508181036080830152611828818861100b565b905061183760a0830187611044565b61184460c0830186611044565b61185160e0830185611044565b61185f610100830184611044565b9a995050505050505050505056fea2646970667358221220834e7c6bf777db6bb6ae266e60beb023329c4c33c382e11e83c220ecc8de854464736f6c634300080f0033",
  "immutableReferences": {},
  "source": "// SPDX-License-Identifier: MIT\npragma solidity ^0.8.15;\n\ncontract MedicalRecord {\n    struct TreatmentDetail {\n        string category;\n        string date;\n        string treatCode;\n        string description;\n        uint256 price;\n        uint256 oop;\n        uint256 pcc;\n        uint256 foop;\n        uint256 nonReimbursement;\n    }\n\n    struct MedicalRecordData {\n        string name;\n        string RRN;\n        string KCD;\n        string date;\n        string receiptNumber;\n        uint256 totalOop;\n        uint256 totPcc;\n        uint256 totFoop;\n        uint256 nonReimbursement;\n        mapping(uint256 => TreatmentDetail) treatDetails;\n        uint256 treatDetailsCount; //     \n    }\n\n    // attribute\n    string private constant DEFAULT_KCD = \"J09\"; //  RRN \n    mapping(string => MedicalRecordData) private medicalRecords;\n    \n    // event\n    event MedicalRecordSet(\n        string name,\n        string RRN,\n        string KCD,\n        string date,\n        string receiptNumber,\n        uint256 totalOop,\n        uint256 totPcc,\n        uint256 totFoop,\n        uint256 nonReimbursement\n    );\n\n    //    \n    function addMedicalRecord(\n        string memory _name,\n        string memory _RRN,\n        string memory _KCD,\n        string memory _date,\n        string memory _receiptNumber,\n        uint256 _totalOop,\n        uint256 _totPcc,\n        uint256 _totFoop,\n        uint256 _nonReimbursement,\n        TreatmentDetail[] memory _treatDetails\n    ) public {\n        require(keccak256(bytes(_KCD)) == keccak256(bytes(DEFAULT_KCD)), \"KCD does not match\");\n        require(bytes(medicalRecords[_receiptNumber].name).length == 0, \"Receipt number already exists\");\n\n        MedicalRecordData storage record = medicalRecords[_receiptNumber];\n        record.name = _name;\n        record.RRN = _RRN;\n        record.KCD = _KCD;\n        record.date = _date;\n        record.receiptNumber = _receiptNumber;\n        record.totalOop = _totalOop;\n        record.totPcc = _totPcc;\n        record.totFoop = _totFoop;\n        record.nonReimbursement = _nonReimbursement;\n\n        for (uint256 i = 0; i < _treatDetails.length; i++) {\n            record.treatDetails[i] = _treatDetails[i];\n        }\n        record.treatDetailsCount = _treatDetails.length;\n\n        emit MedicalRecordSet(_name, _RRN, _KCD, _date, _receiptNumber, _totalOop, _totPcc, _totFoop, _nonReimbursement);\n    }\n\t\t\n    //  \n    function getMedicalRecord(string memory _receiptNumber) public view returns (string memory, string memory, string memory, string memory, string memory, uint256, uint256, uint256, uint256, TreatmentDetail[] memory) {\n        MedicalRecordData storage record = medicalRecords[_receiptNumber];\n        TreatmentDetail[] memory details = new TreatmentDetail[](record.treatDetailsCount);\n\t\t    for (uint256 i = 0; i < record.treatDetailsCount; i++) {\n\t\t        details[i] = record.treatDetails[i];\n\t\t    }\n        return (\n            record.name,\n            record.RRN,\n            record.KCD,\n            record.date,\n            record.receiptNumber,\n            record.totalOop,\n            record.totPcc,\n            record.totFoop,\n            record.nonReimbursement,\n            details\n        );\n    }\n}\n\n",
  "sourcePath": "/home/wkdcodms127/truf/contracts/MedicalRecord.sol",
  "compiler": {
    "name": "solc",
    "version": "0.8.15+commit.e14f2714.Emscripten.clang"
  },
  "schemaVersion": "3.4.8",
  "updatedAt": "2024-04-17T00:11:15.515Z",
  "networkType": "ethereum",
  "devdoc": {
    "kind": "dev",
    "methods": {},
    "version": 1
  },
  "userdoc": {
    "kind": "user",
    "methods": {},
    "version": 1
  }
}